:020000020000FC
:040000000C94F60066
:1001EC000FEF0093E00712E01093E40700918806EC
:1001FC00007219F112E01093E40720E234E14AEFA7
:10020C00000000004A95E1F73A95C9F72A95B1F735
:10021C0011E01093E4070C94130120E234E14AEF4F
:10022C00000000004A95E1F73A95C9F72A95B1F715
:10023C0011E01093E4070C94FC0012E01093E40717
:10024C0020E234E149E1000000004A95E1F73A95DB
:10025C00C9F72A95B1F711E01093E4070C94360115
:10026C0020E234E149E1000000004A95E1F73A95BB
:10027C00C9F72A95B1F711E01093E4070C944601E5
:06028C000C94FC00FFCF02
:00000001FF
